(self.webpackChunkdoc=self.webpackChunkdoc||[]).push([[723],{3905:function(e,t,n){"use strict";n.d(t,{Zo:function(){return l},kt:function(){return f}});var a=n(7294);function r(e,t,n){return t in e?Object.defineProperty(e,t,{value:n,enumerable:!0,configurable:!0,writable:!0}):e[t]=n,e}function i(e,t){var n=Object.keys(e);if(Object.getOwnPropertySymbols){var a=Object.getOwnPropertySymbols(e);t&&(a=a.filter((function(t){return Object.getOwnPropertyDescriptor(e,t).enumerable}))),n.push.apply(n,a)}return n}function o(e){for(var t=1;t<arguments.length;t++){var n=null!=arguments[t]?arguments[t]:{};t%2?i(Object(n),!0).forEach((function(t){r(e,t,n[t])})):Object.getOwnPropertyDescriptors?Object.defineProperties(e,Object.getOwnPropertyDescriptors(n)):i(Object(n)).forEach((function(t){Object.defineProperty(e,t,Object.getOwnPropertyDescriptor(n,t))}))}return e}function c(e,t){if(null==e)return{};var n,a,r=function(e,t){if(null==e)return{};var n,a,r={},i=Object.keys(e);for(a=0;a<i.length;a++)n=i[a],t.indexOf(n)>=0||(r[n]=e[n]);return r}(e,t);if(Object.getOwnPropertySymbols){var i=Object.getOwnPropertySymbols(e);for(a=0;a<i.length;a++)n=i[a],t.indexOf(n)>=0||Object.prototype.propertyIsEnumerable.call(e,n)&&(r[n]=e[n])}return r}var d=a.createContext({}),p=function(e){var t=a.useContext(d),n=t;return e&&(n="function"==typeof e?e(t):o(o({},t),e)),n},l=function(e){var t=p(e.components);return a.createElement(d.Provider,{value:t},e.children)},u={inlineCode:"code",wrapper:function(e){var t=e.children;return a.createElement(a.Fragment,{},t)}},b=a.forwardRef((function(e,t){var n=e.components,r=e.mdxType,i=e.originalType,d=e.parentName,l=c(e,["components","mdxType","originalType","parentName"]),b=p(n),f=r,s=b["".concat(d,".").concat(f)]||b[f]||u[f]||i;return n?a.createElement(s,o(o({ref:t},l),{},{components:n})):a.createElement(s,o({ref:t},l))}));function f(e,t){var n=arguments,r=t&&t.mdxType;if("string"==typeof e||r){var i=n.length,o=new Array(i);o[0]=b;var c={};for(var d in t)hasOwnProperty.call(t,d)&&(c[d]=t[d]);c.originalType=e,c.mdxType="string"==typeof e?e:r,o[1]=c;for(var p=2;p<i;p++)o[p]=n[p];return a.createElement.apply(null,o)}return a.createElement.apply(null,n)}b.displayName="MDXCreateElement"},962:function(e,t,n){"use strict";n.r(t),n.d(t,{frontMatter:function(){return c},contentTitle:function(){return d},metadata:function(){return p},toc:function(){return l},default:function(){return b}});var a=n(2122),r=n(9756),i=(n(7294),n(3905)),o=["components"],c={sidebar_position:2},d="tx",p={unversionedId:"documentation/server-api/operation-api/tx",id:"documentation/server-api/operation-api/tx",isDocsHomePage:!1,title:"tx",description:"Function",source:"@site/docs/documentation/server-api/operation-api/tx.md",sourceDirName:"documentation/server-api/operation-api",slug:"/documentation/server-api/operation-api/tx",permalink:"/docs/documentation/server-api/operation-api/tx",editUrl:"https://github.com/everFinance/docs/edit/master/docs/documentation/server-api/operation-api/tx.md",version:"current",sidebarPosition:2,frontMatter:{sidebar_position:2},sidebar:"documentation",previous:{title:"Introduction",permalink:"/docs/documentation/server-api/operation-api/intro"},next:{title:"Introduction",permalink:"/docs/documentation/everpay-js/intro"}},l=[{value:"Function",id:"function",children:[]},{value:"Signature generation with everPay Tx",id:"signature-generation-with-everpay-tx",children:[]},{value:"Send to everPay tx interface",id:"send-to-everpay-tx-interface",children:[{value:"Parameter",id:"parameter",children:[]},{value:"Example",id:"example",children:[]},{value:"Example return",id:"example-return",children:[]}]}],u={toc:l};function b(e){var t=e.components,n=(0,r.Z)(e,o);return(0,i.kt)("wrapper",(0,a.Z)({},u,n,{components:t,mdxType:"MDXLayout"}),(0,i.kt)("h1",{id:"tx"},"tx"),(0,i.kt)("h2",{id:"function"},"Function"),(0,i.kt)("p",null,"For all everPay transactions, everPay Tx is generated and sent to ",(0,i.kt)("inlineCode",{parentName:"p"},"tx")," API via ",(0,i.kt)("inlineCode",{parentName:"p"},"POST")," request, which is validated by everPay backend service."),(0,i.kt)("p",null,"On the user side, only the following will be generated."),(0,i.kt)("ul",null,(0,i.kt)("li",{parentName:"ul"},(0,i.kt)("inlineCode",{parentName:"li"},"transfer")," everPay Tx for transfer transaction"),(0,i.kt)("li",{parentName:"ul"},(0,i.kt)("inlineCode",{parentName:"li"},"burn")," everPay Tx for withdraw transaction")),(0,i.kt)("h2",{id:"signature-generation-with-everpay-tx"},"Signature generation with everPay Tx"),(0,i.kt)("p",null,"See ",(0,i.kt)("a",{parentName:"p",href:"../../everpay-tx"},"everPay Tx")," for details."),(0,i.kt)("h2",{id:"send-to-everpay-tx-interface"},"Send to everPay tx interface"),(0,i.kt)("h3",{id:"parameter"},"Parameter"),(0,i.kt)("ul",null,(0,i.kt)("li",{parentName:"ul"},"path ",(0,i.kt)("inlineCode",{parentName:"li"},"{{endpoint}}/tx")),(0,i.kt)("li",{parentName:"ul"},"Post data ",(0,i.kt)("inlineCode",{parentName:"li"},"everpayTx"))),(0,i.kt)("h3",{id:"example"},"Example"),(0,i.kt)("pre",null,(0,i.kt)("code",{parentName:"pre",className:"language-bash"},'curl --location --request POST \'https://api-dev.everpay.io/tx\' \\\n--header \'Content-Type: application/json\' \\\n--data-raw \'{\n  "tokenSymbol": "USDT",\n  "action": "mint",\n  "from": "0xa06b79E655Db7D7C3B3E7B2ccEEb068c3259d0C9",\n  "to": "0xa06b79E655Db7D7C3B3E7B2ccEEb068c3259d0C9",\n  "amount": "1000000000",\n  "fee": "0",\n  "feeRecipient": "0xa06b79E655Db7D7C3B3E7B2ccEEb068c3259d0C9",\n  "nonce": "125",\n  "tokenID": "0xd85476c906b5301e8e9eb58d174a6f96b9dfc5ee",\n  "chainType": "ethereum",\n  "chainID": "42",\n  "data": "{\\"blockHash\\":\\"0x92a3f4b955177d9e25eb68767804756710a43925726f6028ae41f8c1682e4516\\",\\"blockNumber\\":\\"0x172763a\\",\\"chainId\\":\\"0x2a\\",\\"condition\\":null,\\"creates\\":null,\\"from\\":\\"0xa06b79e655db7d7c3b3e7b2cceeb068c3259d0c9\\",\\"gas\\":\\"0x1319e\\",\\"gasPrice\\":\\"0x2d1375900\\",\\"hash\\":\\"0x8633e2e294dd2b0995bbd313390797be673f67196c51c0f49b8f17c0893d1c66\\",\\"input\\":\\"0xa9059cbb0000000000000000000000007749cc63da481aae8fe846db55b2cd216663a984000000000000000000000000000000000000000000000000000000003b9aca00\\",\\"nonce\\":\\"0x2ee\\",\\"publicKey\\":\\"0x103e40746c8cadcf3ec79cc5143e98c23bf22bf3e4abb6cd96221dfc2439494bbd2cdbb232bff9b69f931542e2ceb13253eaebe977f3613a9686a782738e6424\\",\\"r\\":\\"0xd959cbaffe7ab911a312fd023452a7dede9483a85ba8800961f36b040cf1f310\\",\\"raw\\":\\"0xf8ac8202ee8502d13759008301319e94d85476c906b5301e8e9eb58d174a6f96b9dfc5ee80b844a9059cbb0000000000000000000000007749cc63da481aae8fe846db55b2cd216663a984000000000000000000000000000000000000000000000000000000003b9aca0077a0d959cbaffe7ab911a312fd023452a7dede9483a85ba8800961f36b040cf1f310a04a15cadb83b39d565154e0bb4c149d7ff478791ea82e1a3a1a2a91a047b8c52c\\",\\"s\\":\\"0x4a15cadb83b39d565154e0bb4c149d7ff478791ea82e1a3a1a2a91a047b8c52c\\",\\"standardV\\":\\"0x0\\",\\"to\\":\\"0xd85476c906b5301e8e9eb58d174a6f96b9dfc5ee\\",\\"transactionIndex\\":\\"0x3\\",\\"v\\":\\"0x77\\",\\"value\\":\\"0x0\\"}",\n  "version": "v1",\n  "sig": "0x41054e11f44ddc72adf6f24efd9701ba510c7858ec8a1f0b08891e8d6f19869b552fb79134cb804d9074a3230c727c29930786435c46be21804dac0e3d871d831c"\n}\'\n')),(0,i.kt)("h3",{id:"example-return"},"Example return"),(0,i.kt)("pre",null,(0,i.kt)("code",{parentName:"pre",className:"language-json"},'{\n  "status": "ok"\n}\n')))}b.isMDXComponent=!0}}]);