(self.webpackChunkdoc=self.webpackChunkdoc||[]).push([[7688],{3905:function(e,n,t){"use strict";t.d(n,{Zo:function(){return l},kt:function(){return b}});var a=t(7294);function r(e,n,t){return n in e?Object.defineProperty(e,n,{value:t,enumerable:!0,configurable:!0,writable:!0}):e[n]=t,e}function i(e,n){var t=Object.keys(e);if(Object.getOwnPropertySymbols){var a=Object.getOwnPropertySymbols(e);n&&(a=a.filter((function(n){return Object.getOwnPropertyDescriptor(e,n).enumerable}))),t.push.apply(t,a)}return t}function c(e){for(var n=1;n<arguments.length;n++){var t=null!=arguments[n]?arguments[n]:{};n%2?i(Object(t),!0).forEach((function(n){r(e,n,t[n])})):Object.getOwnPropertyDescriptors?Object.defineProperties(e,Object.getOwnPropertyDescriptors(t)):i(Object(t)).forEach((function(n){Object.defineProperty(e,n,Object.getOwnPropertyDescriptor(t,n))}))}return e}function o(e,n){if(null==e)return{};var t,a,r=function(e,n){if(null==e)return{};var t,a,r={},i=Object.keys(e);for(a=0;a<i.length;a++)t=i[a],n.indexOf(t)>=0||(r[t]=e[t]);return r}(e,n);if(Object.getOwnPropertySymbols){var i=Object.getOwnPropertySymbols(e);for(a=0;a<i.length;a++)t=i[a],n.indexOf(t)>=0||Object.prototype.propertyIsEnumerable.call(e,t)&&(r[t]=e[t])}return r}var d=a.createContext({}),p=function(e){var n=a.useContext(d),t=n;return e&&(t="function"==typeof e?e(n):c(c({},n),e)),t},l=function(e){var n=p(e.components);return a.createElement(d.Provider,{value:n},e.children)},u={inlineCode:"code",wrapper:function(e){var n=e.children;return a.createElement(a.Fragment,{},n)}},s=a.forwardRef((function(e,n){var t=e.components,r=e.mdxType,i=e.originalType,d=e.parentName,l=o(e,["components","mdxType","originalType","parentName"]),s=p(t),b=r,f=s["".concat(d,".").concat(b)]||s[b]||u[b]||i;return t?a.createElement(f,c(c({ref:n},l),{},{components:t})):a.createElement(f,c({ref:n},l))}));function b(e,n){var t=arguments,r=n&&n.mdxType;if("string"==typeof e||r){var i=t.length,c=new Array(i);c[0]=s;var o={};for(var d in n)hasOwnProperty.call(n,d)&&(o[d]=n[d]);o.originalType=e,o.mdxType="string"==typeof e?e:r,c[1]=o;for(var p=2;p<i;p++)c[p]=t[p];return a.createElement.apply(null,c)}return a.createElement.apply(null,t)}s.displayName="MDXCreateElement"},8024:function(e,n,t){"use strict";t.r(n),t.d(n,{frontMatter:function(){return o},contentTitle:function(){return d},metadata:function(){return p},toc:function(){return l},default:function(){return s}});var a=t(2122),r=t(9756),i=(t(7294),t(3905)),c=["components"],o={sidebar_position:2},d="tx",p={unversionedId:"sdk/server-api/operation-api/tx",id:"sdk/server-api/operation-api/tx",isDocsHomePage:!1,title:"tx",description:"Function",source:"@site/i18n/en/docusaurus-plugin-content-docs/current/sdk/server-api/operation-api/tx.md",sourceDirName:"sdk/server-api/operation-api",slug:"/sdk/server-api/operation-api/tx",permalink:"/en/docs/sdk/server-api/operation-api/tx",editUrl:"https://github.com/everFinance/docs/edit/master/i18n/en/docusaurus-plugin-content-docs/current/sdk/server-api/operation-api/tx.md",tags:[],version:"current",sidebarPosition:2,frontMatter:{sidebar_position:2},sidebar:"sdk",previous:{title:"Introduction",permalink:"/en/docs/sdk/server-api/operation-api/intro"},next:{title:"swapOrder",permalink:"/en/docs/sdk/server-api/operation-api/swapOrder"}},l=[{value:"Function",id:"function",children:[]},{value:"Parameter",id:"parameter",children:[]},{value:"Example",id:"example",children:[{value:"Example Return",id:"example-return",children:[]}]}],u={toc:l};function s(e){var n=e.components,t=(0,r.Z)(e,c);return(0,i.kt)("wrapper",(0,a.Z)({},u,t,{components:n,mdxType:"MDXLayout"}),(0,i.kt)("h1",{id:"tx"},"tx"),(0,i.kt)("h2",{id:"function"},"Function"),(0,i.kt)("p",null,"For all everPay transactions, everPay Tx is generated and sent to ",(0,i.kt)("inlineCode",{parentName:"p"},"tx")," API via ",(0,i.kt)("inlineCode",{parentName:"p"},"POST")," request, which is validated by everPay backend service."),(0,i.kt)("p",null,"On the user side, only the following will be generated."),(0,i.kt)("ul",null,(0,i.kt)("li",{parentName:"ul"},(0,i.kt)("inlineCode",{parentName:"li"},"transfer")," everPay Tx for transfer transaction"),(0,i.kt)("li",{parentName:"ul"},(0,i.kt)("inlineCode",{parentName:"li"},"burn")," everPay Tx for withdraw transaction")),(0,i.kt)("h2",{id:"parameter"},"Parameter"),(0,i.kt)("ul",null,(0,i.kt)("li",{parentName:"ul"},"path ",(0,i.kt)("inlineCode",{parentName:"li"},"{{endpoint}}/tx")),(0,i.kt)("li",{parentName:"ul"},"Post data ",(0,i.kt)("inlineCode",{parentName:"li"},"everpayTx"))),(0,i.kt)("p",null,"For ",(0,i.kt)("inlineCode",{parentName:"p"},"Schema")," generation, signatures, and transaction record acquisition, please read ",(0,i.kt)("a",{parentName:"p",href:"../../../guide/dive/transaction"},"Guide - Dive - Transaction")),(0,i.kt)("h2",{id:"example"},"Example"),(0,i.kt)("pre",null,(0,i.kt)("code",{parentName:"pre",className:"language-bash"},'curl --location --request POST \'https://api-dev.everpay.io/tx\' \\\n--header \'Content-Type: application/json\' \\\n--data-raw \'{\n  "tokenSymbol": "USDT",\n  "action": "mint",\n  "from": "0xa06b79E655Db7D7C3B3E7B2ccEEb068c3259d0C9",\n  "to": "0xa06b79E655Db7D7C3B3E7B2ccEEb068c3259d0C9",\n  "amount": "1000000000",\n  "fee": "0",\n  "feeRecipient": "0xa06b79E655Db7D7C3B3E7B2ccEEb068c3259d0C9",\n  "nonce": "125",\n  "tokenID": "0xd85476c906b5301e8e9eb58d174a6f96b9dfc5ee",\n  "chainType": "ethereum",\n  "chainID": "42",\n  "data": "{\\"blockHash\\":\\"0x92a3f4b955177d9e25eb68767804756710a43925726f6028ae41f8c1682e4516\\",\\"blockNumber\\":\\"0x172763a\\",\\"chainId\\":\\"0x2a\\",\\"condition\\":null,\\"creates\\":null,\\"from\\":\\"0xa06b79e655db7d7c3b3e7b2cceeb068c3259d0c9\\",\\"gas\\":\\"0x1319e\\",\\"gasPrice\\":\\"0x2d1375900\\",\\"hash\\":\\"0x8633e2e294dd2b0995bbd313390797be673f67196c51c0f49b8f17c0893d1c66\\",\\"input\\":\\"0xa9059cbb0000000000000000000000007749cc63da481aae8fe846db55b2cd216663a984000000000000000000000000000000000000000000000000000000003b9aca00\\",\\"nonce\\":\\"0x2ee\\",\\"publicKey\\":\\"0x103e40746c8cadcf3ec79cc5143e98c23bf22bf3e4abb6cd96221dfc2439494bbd2cdbb232bff9b69f931542e2ceb13253eaebe977f3613a9686a782738e6424\\",\\"r\\":\\"0xd959cbaffe7ab911a312fd023452a7dede9483a85ba8800961f36b040cf1f310\\",\\"raw\\":\\"0xf8ac8202ee8502d13759008301319e94d85476c906b5301e8e9eb58d174a6f96b9dfc5ee80b844a9059cbb0000000000000000000000007749cc63da481aae8fe846db55b2cd216663a984000000000000000000000000000000000000000000000000000000003b9aca0077a0d959cbaffe7ab911a312fd023452a7dede9483a85ba8800961f36b040cf1f310a04a15cadb83b39d565154e0bb4c149d7ff478791ea82e1a3a1a2a91a047b8c52c\\",\\"s\\":\\"0x4a15cadb83b39d565154e0bb4c149d7ff478791ea82e1a3a1a2a91a047b8c52c\\",\\"standardV\\":\\"0x0\\",\\"to\\":\\"0xd85476c906b5301e8e9eb58d174a6f96b9dfc5ee\\",\\"transactionIndex\\":\\"0x3\\",\\"v\\":\\"0x77\\",\\"value\\":\\"0x0\\"}",\n  "version": "v1",\n  "sig": "0x41054e11f44ddc72adf6f24efd9701ba510c7858ec8a1f0b08891e8d6f19869b552fb79134cb804d9074a3230c727c29930786435c46be21804dac0e3d871d831c"\n}\'\n')),(0,i.kt)("h3",{id:"example-return"},"Example Return"),(0,i.kt)("pre",null,(0,i.kt)("code",{parentName:"pre",className:"language-json"},'{\n  "status": "ok"\n}\n')))}s.isMDXComponent=!0}}]);