"use strict";(self.webpackChunkdoc=self.webpackChunkdoc||[]).push([[8587],{3905:(e,t,a)=>{a.d(t,{Zo:()=>p,kt:()=>f});var n=a(7294);function r(e,t,a){return t in e?Object.defineProperty(e,t,{value:a,enumerable:!0,configurable:!0,writable:!0}):e[t]=a,e}function i(e,t){var a=Object.keys(e);if(Object.getOwnPropertySymbols){var n=Object.getOwnPropertySymbols(e);t&&(n=n.filter((function(t){return Object.getOwnPropertyDescriptor(e,t).enumerable}))),a.push.apply(a,n)}return a}function c(e){for(var t=1;t<arguments.length;t++){var a=null!=arguments[t]?arguments[t]:{};t%2?i(Object(a),!0).forEach((function(t){r(e,t,a[t])})):Object.getOwnPropertyDescriptors?Object.defineProperties(e,Object.getOwnPropertyDescriptors(a)):i(Object(a)).forEach((function(t){Object.defineProperty(e,t,Object.getOwnPropertyDescriptor(a,t))}))}return e}function o(e,t){if(null==e)return{};var a,n,r=function(e,t){if(null==e)return{};var a,n,r={},i=Object.keys(e);for(n=0;n<i.length;n++)a=i[n],t.indexOf(a)>=0||(r[a]=e[a]);return r}(e,t);if(Object.getOwnPropertySymbols){var i=Object.getOwnPropertySymbols(e);for(n=0;n<i.length;n++)a=i[n],t.indexOf(a)>=0||Object.prototype.propertyIsEnumerable.call(e,a)&&(r[a]=e[a])}return r}var d=n.createContext({}),l=function(e){var t=n.useContext(d),a=t;return e&&(a="function"==typeof e?e(t):c(c({},t),e)),a},p=function(e){var t=l(e.components);return n.createElement(d.Provider,{value:t},e.children)},u="mdxType",b={inlineCode:"code",wrapper:function(e){var t=e.children;return n.createElement(n.Fragment,{},t)}},s=n.forwardRef((function(e,t){var a=e.components,r=e.mdxType,i=e.originalType,d=e.parentName,p=o(e,["components","mdxType","originalType","parentName"]),u=l(a),s=r,f=u["".concat(d,".").concat(s)]||u[s]||b[s]||i;return a?n.createElement(f,c(c({ref:t},p),{},{components:a})):n.createElement(f,c({ref:t},p))}));function f(e,t){var a=arguments,r=t&&t.mdxType;if("string"==typeof e||r){var i=a.length,c=new Array(i);c[0]=s;var o={};for(var d in t)hasOwnProperty.call(t,d)&&(o[d]=t[d]);o.originalType=e,o[u]="string"==typeof e?e:r,c[1]=o;for(var l=2;l<i;l++)c[l]=a[l];return n.createElement.apply(null,c)}return n.createElement.apply(null,a)}s.displayName="MDXCreateElement"},4773:(e,t,a)=>{a.r(t),a.d(t,{assets:()=>d,contentTitle:()=>c,default:()=>b,frontMatter:()=>i,metadata:()=>o,toc:()=>l});var n=a(7462),r=(a(7294),a(3905));const i={sidebar_position:2},c="tx",o={unversionedId:"guide/server-api/operation-api/tx",id:"guide/server-api/operation-api/tx",title:"tx",description:"Function",source:"@site/i18n/en/docusaurus-plugin-content-docs/current/guide/server-api/operation-api/tx.md",sourceDirName:"guide/server-api/operation-api",slug:"/guide/server-api/operation-api/tx",permalink:"/en/docs/guide/server-api/operation-api/tx",draft:!1,editUrl:"https://github.com/everFinance/docs/edit/master/i18n/en/docusaurus-plugin-content-docs/current/guide/server-api/operation-api/tx.md",tags:[],version:"current",sidebarPosition:2,frontMatter:{sidebar_position:2},sidebar:"guide",previous:{title:"Introduction",permalink:"/en/docs/guide/server-api/operation-api/intro"},next:{title:"Introduction",permalink:"/en/docs/guide/SDK/intro"}},d={},l=[{value:"Function",id:"function",level:2},{value:"Parameter",id:"parameter",level:2},{value:"Example",id:"example",level:2},{value:"Example Return",id:"example-return",level:3}],p={toc:l},u="wrapper";function b(e){let{components:t,...a}=e;return(0,r.kt)(u,(0,n.Z)({},p,a,{components:t,mdxType:"MDXLayout"}),(0,r.kt)("h1",{id:"tx"},"tx"),(0,r.kt)("h2",{id:"function"},"Function"),(0,r.kt)("p",null,"For all everPay transactions, everPay Tx is generated and sent to ",(0,r.kt)("inlineCode",{parentName:"p"},"tx")," API via ",(0,r.kt)("inlineCode",{parentName:"p"},"POST")," request, which is validated by everPay backend service."),(0,r.kt)("p",null,"On the user side, only the following will be generated."),(0,r.kt)("ul",null,(0,r.kt)("li",{parentName:"ul"},(0,r.kt)("inlineCode",{parentName:"li"},"transfer")," everPay Tx for transfer transaction."),(0,r.kt)("li",{parentName:"ul"},(0,r.kt)("inlineCode",{parentName:"li"},"burn")," everPay Tx for withdraw transaction.")),(0,r.kt)("h2",{id:"parameter"},"Parameter"),(0,r.kt)("ul",null,(0,r.kt)("li",{parentName:"ul"},"path ",(0,r.kt)("inlineCode",{parentName:"li"},"{{endpoint}}/tx")),(0,r.kt)("li",{parentName:"ul"},"Post data ",(0,r.kt)("inlineCode",{parentName:"li"},"everpayTx"))),(0,r.kt)("p",null,"For ",(0,r.kt)("inlineCode",{parentName:"p"},"Schema")," generation, signatures, and transaction record acquisition, please read ",(0,r.kt)("a",{parentName:"p",href:"../../dive/transaction"},"DOCS - System overview - Transaction"),"."),(0,r.kt)("h2",{id:"example"},"Example"),(0,r.kt)("pre",null,(0,r.kt)("code",{parentName:"pre",className:"language-bash"},'curl --location --request POST \'https://api-dev.everpay.io/tx\' \\\n--header \'Content-Type: application/json\' \\\n--data-raw \'{\n  "tokenSymbol": "USDT",\n  "action": "mint",\n  "from": "0xa06b79E655Db7D7C3B3E7B2ccEEb068c3259d0C9",\n  "to": "0xa06b79E655Db7D7C3B3E7B2ccEEb068c3259d0C9",\n  "amount": "1000000000",\n  "fee": "0",\n  "feeRecipient": "0xa06b79E655Db7D7C3B3E7B2ccEEb068c3259d0C9",\n  "nonce": "125",\n  "tokenID": "0xd85476c906b5301e8e9eb58d174a6f96b9dfc5ee",\n  "chainType": "ethereum",\n  "chainID": "42",\n  "data": "{\\"blockHash\\":\\"0x92a3f4b955177d9e25eb68767804756710a43925726f6028ae41f8c1682e4516\\",\\"blockNumber\\":\\"0x172763a\\",\\"chainId\\":\\"0x2a\\",\\"condition\\":null,\\"creates\\":null,\\"from\\":\\"0xa06b79e655db7d7c3b3e7b2cceeb068c3259d0c9\\",\\"gas\\":\\"0x1319e\\",\\"gasPrice\\":\\"0x2d1375900\\",\\"hash\\":\\"0x8633e2e294dd2b0995bbd313390797be673f67196c51c0f49b8f17c0893d1c66\\",\\"input\\":\\"0xa9059cbb0000000000000000000000007749cc63da481aae8fe846db55b2cd216663a984000000000000000000000000000000000000000000000000000000003b9aca00\\",\\"nonce\\":\\"0x2ee\\",\\"publicKey\\":\\"0x103e40746c8cadcf3ec79cc5143e98c23bf22bf3e4abb6cd96221dfc2439494bbd2cdbb232bff9b69f931542e2ceb13253eaebe977f3613a9686a782738e6424\\",\\"r\\":\\"0xd959cbaffe7ab911a312fd023452a7dede9483a85ba8800961f36b040cf1f310\\",\\"raw\\":\\"0xf8ac8202ee8502d13759008301319e94d85476c906b5301e8e9eb58d174a6f96b9dfc5ee80b844a9059cbb0000000000000000000000007749cc63da481aae8fe846db55b2cd216663a984000000000000000000000000000000000000000000000000000000003b9aca0077a0d959cbaffe7ab911a312fd023452a7dede9483a85ba8800961f36b040cf1f310a04a15cadb83b39d565154e0bb4c149d7ff478791ea82e1a3a1a2a91a047b8c52c\\",\\"s\\":\\"0x4a15cadb83b39d565154e0bb4c149d7ff478791ea82e1a3a1a2a91a047b8c52c\\",\\"standardV\\":\\"0x0\\",\\"to\\":\\"0xd85476c906b5301e8e9eb58d174a6f96b9dfc5ee\\",\\"transactionIndex\\":\\"0x3\\",\\"v\\":\\"0x77\\",\\"value\\":\\"0x0\\"}",\n  "version": "v1",\n  "sig": "0x41054e11f44ddc72adf6f24efd9701ba510c7858ec8a1f0b08891e8d6f19869b552fb79134cb804d9074a3230c727c29930786435c46be21804dac0e3d871d831c"\n}\'\n')),(0,r.kt)("h3",{id:"example-return"},"Example Return"),(0,r.kt)("pre",null,(0,r.kt)("code",{parentName:"pre",className:"language-json"},'{\n  "status": "ok"\n}\n')))}b.isMDXComponent=!0}}]);