<!doctype html>
<html lang="en" dir="ltr" class="docs-wrapper docs-doc-page docs-version-current plugin-docs plugin-id-default docs-doc-id-sdk/server-api/operation-api/tx">
<head>
<meta charset="UTF-8">
<meta name="generator" content="Docusaurus v2.3.1">
<title data-rh="true">tx | everPay Docs</title><meta data-rh="true" name="viewport" content="width=device-width,initial-scale=1"><meta data-rh="true" name="twitter:card" content="summary_large_image"><meta data-rh="true" property="og:url" content="https://docs.everpay.io/en/docs/sdk/server-api/operation-api/tx"><meta data-rh="true" name="docusaurus_locale" content="en"><meta data-rh="true" name="docsearch:language" content="en"><meta data-rh="true" name="docusaurus_version" content="current"><meta data-rh="true" name="docusaurus_tag" content="docs-default-current"><meta data-rh="true" name="docsearch:version" content="current"><meta data-rh="true" name="docsearch:docusaurus_tag" content="docs-default-current"><meta data-rh="true" property="og:title" content="tx | everPay Docs"><meta data-rh="true" name="description" content="Function"><meta data-rh="true" property="og:description" content="Function"><link data-rh="true" rel="icon" href="/en/img/favicon.png"><link data-rh="true" rel="canonical" href="https://docs.everpay.io/en/docs/sdk/server-api/operation-api/tx"><link data-rh="true" rel="alternate" href="https://docs.everpay.io/en/docs/sdk/server-api/operation-api/tx" hreflang="en"><link data-rh="true" rel="alternate" href="https://docs.everpay.io/docs/sdk/server-api/operation-api/tx" hreflang="zh-cn"><link data-rh="true" rel="alternate" href="https://docs.everpay.io/docs/sdk/server-api/operation-api/tx" hreflang="x-default"><link data-rh="true" rel="preconnect" href="https://AI0VA1UPRC-dsn.algolia.net" crossorigin="anonymous"><link rel="preconnect" href="https://www.google-analytics.com">
<link rel="preconnect" href="https://www.googletagmanager.com">
<script async src="https://www.googletagmanager.com/gtag/js?id=GTM-PZ2J4TP"></script>
<script>function gtag(){dataLayer.push(arguments)}window.dataLayer=window.dataLayer||[],gtag("js",new Date),gtag("config","GTM-PZ2J4TP",{})</script>


<link rel="search" type="application/opensearchdescription+xml" title="everPay Docs" href="/en/opensearch.xml"><link rel="stylesheet" href="/en/assets/css/styles.48085ec0.css">
<link rel="preload" href="/en/assets/js/runtime~main.10486843.js" as="script">
<link rel="preload" href="/en/assets/js/main.92a9d5d0.js" as="script">
</head>
<body class="navigation-with-keyboard">
<script>!function(){function t(t){document.documentElement.setAttribute("data-theme",t)}var e=function(){var t=null;try{t=localStorage.getItem("theme")}catch(t){}return t}();t(null!==e?e:"light")}()</script><div id="__docusaurus">
<div role="region" aria-label="Skip to main content"><a class="skipToContent_fXgn" href="#docusaurus_skipToContent_fallback">Skip to main content</a></div><nav aria-label="Main" class="navbar navbar--fixed-top"><div class="navbar__inner"><div class="navbar__items"><button aria-label="Toggle navigation bar" aria-expanded="false" class="navbar__toggle clean-btn" type="button"><svg width="30" height="30" viewBox="0 0 30 30" aria-hidden="true"><path stroke="currentColor" stroke-linecap="round" stroke-miterlimit="10" stroke-width="2" d="M4 7h22M4 15h22M4 23h22"></path></svg></button><a class="navbar__brand" href="/en/"><div class="navbar__logo"><img src="/en/img/logo-black.svg" alt="everPay Logo" class="themedImage_ToTc themedImage--light_HNdA"><img src="/en/img/logo-white.svg" alt="everPay Logo" class="themedImage_ToTc themedImage--dark_i4oU"></div><b class="navbar__title text--truncate">everPay Docs</b></a><a class="navbar__item navbar__link" href="/en/docs/guide/quick-start/overview">Guide</a><a aria-current="page" class="navbar__item navbar__link navbar__link--active" href="/en/docs/sdk/intro">SDK</a></div><div class="navbar__items navbar__items--right"><div class="navbar__item dropdown dropdown--hoverable dropdown--right"><a href="#" aria-haspopup="true" aria-expanded="false" role="button" class="navbar__link"><svg viewBox="0 0 24 24" width="20" height="20" aria-hidden="true" class="iconLanguage_nlXk"><path fill="currentColor" d="M12.87 15.07l-2.54-2.51.03-.03c1.74-1.94 2.98-4.17 3.71-6.53H17V4h-7V2H8v2H1v1.99h11.17C11.5 7.92 10.44 9.75 9 11.35 8.07 10.32 7.3 9.19 6.69 8h-2c.73 1.63 1.73 3.17 2.98 4.56l-5.09 5.02L4 19l5-5 3.11 3.11.76-2.04zM18.5 10h-2L12 22h2l1.12-3h4.75L21 22h2l-4.5-12zm-2.62 7l1.62-4.33L19.12 17h-3.24z"></path></svg>English</a><ul class="dropdown__menu"><li><a href="/en/docs/sdk/server-api/operation-api/tx" target="_self" rel="noopener noreferrer" class="dropdown__link dropdown__link--active" lang="en">English</a></li><li><a href="/docs/sdk/server-api/operation-api/tx" target="_self" rel="noopener noreferrer" class="dropdown__link" lang="zh-cn">简体中文</a></li></ul></div><a href="https://github.com/everFinance/docs" target="_blank" rel="noopener noreferrer" class="navbar__item navbar__link">GitHub<svg width="13.5" height="13.5" aria-hidden="true" viewBox="0 0 24 24" class="iconExternalLink_nPIU"><path fill="currentColor" d="M21 13v10h-21v-19h12v2h-10v15h17v-8h2zm3-12h-10.988l4.035 4-6.977 7.07 2.828 2.828 6.977-7.07 4.125 4.172v-11z"></path></svg></a><div class="toggle_vylO colorModeToggle_DEke"><button class="clean-btn toggleButton_gllP toggleButtonDisabled_aARS" type="button" disabled="" title="Switch between dark and light mode (currently light mode)" aria-label="Switch between dark and light mode (currently light mode)" aria-live="polite"><svg viewBox="0 0 24 24" width="24" height="24" class="lightToggleIcon_pyhR"><path fill="currentColor" d="M12,9c1.65,0,3,1.35,3,3s-1.35,3-3,3s-3-1.35-3-3S10.35,9,12,9 M12,7c-2.76,0-5,2.24-5,5s2.24,5,5,5s5-2.24,5-5 S14.76,7,12,7L12,7z M2,13l2,0c0.55,0,1-0.45,1-1s-0.45-1-1-1l-2,0c-0.55,0-1,0.45-1,1S1.45,13,2,13z M20,13l2,0c0.55,0,1-0.45,1-1 s-0.45-1-1-1l-2,0c-0.55,0-1,0.45-1,1S19.45,13,20,13z M11,2v2c0,0.55,0.45,1,1,1s1-0.45,1-1V2c0-0.55-0.45-1-1-1S11,1.45,11,2z M11,20v2c0,0.55,0.45,1,1,1s1-0.45,1-1v-2c0-0.55-0.45-1-1-1C11.45,19,11,19.45,11,20z M5.99,4.58c-0.39-0.39-1.03-0.39-1.41,0 c-0.39,0.39-0.39,1.03,0,1.41l1.06,1.06c0.39,0.39,1.03,0.39,1.41,0s0.39-1.03,0-1.41L5.99,4.58z M18.36,16.95 c-0.39-0.39-1.03-0.39-1.41,0c-0.39,0.39-0.39,1.03,0,1.41l1.06,1.06c0.39,0.39,1.03,0.39,1.41,0c0.39-0.39,0.39-1.03,0-1.41 L18.36,16.95z M19.42,5.99c0.39-0.39,0.39-1.03,0-1.41c-0.39-0.39-1.03-0.39-1.41,0l-1.06,1.06c-0.39,0.39-0.39,1.03,0,1.41 s1.03,0.39,1.41,0L19.42,5.99z M7.05,18.36c0.39-0.39,0.39-1.03,0-1.41c-0.39-0.39-1.03-0.39-1.41,0l-1.06,1.06 c-0.39,0.39-0.39,1.03,0,1.41s1.03,0.39,1.41,0L7.05,18.36z"></path></svg><svg viewBox="0 0 24 24" width="24" height="24" class="darkToggleIcon_wfgR"><path fill="currentColor" d="M9.37,5.51C9.19,6.15,9.1,6.82,9.1,7.5c0,4.08,3.32,7.4,7.4,7.4c0.68,0,1.35-0.09,1.99-0.27C17.45,17.19,14.93,19,12,19 c-3.86,0-7-3.14-7-7C5,9.07,6.81,6.55,9.37,5.51z M12,3c-4.97,0-9,4.03-9,9s4.03,9,9,9s9-4.03,9-9c0-0.46-0.04-0.92-0.1-1.36 c-0.98,1.37-2.58,2.26-4.4,2.26c-2.98,0-5.4-2.42-5.4-5.4c0-1.81,0.89-3.42,2.26-4.4C12.92,3.04,12.46,3,12,3L12,3z"></path></svg></button></div><div class="searchBox_ZlJk"><button type="button" class="DocSearch DocSearch-Button" aria-label="Search"><span class="DocSearch-Button-Container"><svg width="20" height="20" class="DocSearch-Search-Icon" viewBox="0 0 20 20"><path d="M14.386 14.386l4.0877 4.0877-4.0877-4.0877c-2.9418 2.9419-7.7115 2.9419-10.6533 0-2.9419-2.9418-2.9419-7.7115 0-10.6533 2.9418-2.9419 7.7115-2.9419 10.6533 0 2.9419 2.9418 2.9419 7.7115 0 10.6533z" stroke="currentColor" fill="none" fill-rule="evenodd" stroke-linecap="round" stroke-linejoin="round"></path></svg><span class="DocSearch-Button-Placeholder">Search</span></span><span class="DocSearch-Button-Keys"></span></button></div></div></div><div role="presentation" class="navbar-sidebar__backdrop"></div></nav><div id="docusaurus_skipToContent_fallback" class="main-wrapper mainWrapper_z2l0 docsWrapper_BCFX"><button aria-label="Scroll back to top" class="clean-btn theme-back-to-top-button backToTopButton_sjWU" type="button"></button><div class="docPage__5DB"><aside class="theme-doc-sidebar-container docSidebarContainer_b6E3"><div class="sidebarViewport_Xe31"><div class="sidebar_njMd"><nav aria-label="Sidebar navigation" class="menu thin-scrollbar menu_SIkG"><ul class="theme-doc-sidebar-menu menu__list"><li class="theme-doc-sidebar-item-link theme-doc-sidebar-item-link-level-1 menu__list-item"><a class="menu__link" href="/en/docs/sdk/intro">Introduction</a></li><li class="theme-doc-sidebar-item-category theme-doc-sidebar-item-category-level-1 menu__list-item"><div class="menu__list-item-collapsible"><a class="menu__link menu__link--sublist menu__link--sublist-caret menu__link--active" aria-expanded="true" href="/en/docs/sdk/server-api/intro">Server API</a></div><ul style="display:block;overflow:visible;height:auto" class="menu__list"><li class="theme-doc-sidebar-item-link theme-doc-sidebar-item-link-level-2 menu__list-item"><a class="menu__link" tabindex="0" href="/en/docs/sdk/server-api/intro">Introduction</a></li><li class="theme-doc-sidebar-item-link theme-doc-sidebar-item-link-level-2 menu__list-item"><a class="menu__link" tabindex="0" href="/en/docs/sdk/server-api/environment">Environment</a></li><li class="theme-doc-sidebar-item-category theme-doc-sidebar-item-category-level-2 menu__list-item menu__list-item--collapsed"><div class="menu__list-item-collapsible"><a class="menu__link menu__link--sublist menu__link--sublist-caret" aria-expanded="false" tabindex="0" href="/en/docs/sdk/server-api/basic-api/intro">Basic Query API</a></div></li><li class="theme-doc-sidebar-item-category theme-doc-sidebar-item-category-level-2 menu__list-item"><div class="menu__list-item-collapsible"><a class="menu__link menu__link--sublist menu__link--sublist-caret menu__link--active" aria-expanded="true" tabindex="0" href="/en/docs/sdk/server-api/operation-api/intro">Operation API</a></div><ul style="display:block;overflow:visible;height:auto" class="menu__list"><li class="theme-doc-sidebar-item-link theme-doc-sidebar-item-link-level-3 menu__list-item"><a class="menu__link" tabindex="0" href="/en/docs/sdk/server-api/operation-api/intro">Introduction</a></li><li class="theme-doc-sidebar-item-link theme-doc-sidebar-item-link-level-3 menu__list-item"><a class="menu__link menu__link--active" aria-current="page" tabindex="0" href="/en/docs/sdk/server-api/operation-api/tx">tx</a></li></ul></li></ul></li><li class="theme-doc-sidebar-item-category theme-doc-sidebar-item-category-level-1 menu__list-item menu__list-item--collapsed"><div class="menu__list-item-collapsible"><a class="menu__link menu__link--sublist menu__link--sublist-caret" aria-expanded="false" href="/en/docs/sdk/everpay-js/intro">everpay-js</a></div></li></ul></nav></div></div></aside><main class="docMainContainer_gTbr"><div class="container padding-top--md padding-bottom--lg"><div class="row"><div class="col docItemCol_VOVn"><div class="docItemContainer_Djhp"><article><nav class="theme-doc-breadcrumbs breadcrumbsContainer_Z_bl" aria-label="Breadcrumbs"><ul class="breadcrumbs" itemscope="" itemtype="https://schema.org/BreadcrumbList"><li class="breadcrumbs__item"><a aria-label="Home page" class="breadcrumbs__link" href="/en/"><svg viewBox="0 0 24 24" class="breadcrumbHomeIcon_YNFT"><path d="M10 19v-5h4v5c0 .55.45 1 1 1h3c.55 0 1-.45 1-1v-7h1.7c.46 0 .68-.57.33-.87L12.67 3.6c-.38-.34-.96-.34-1.34 0l-8.36 7.53c-.34.3-.13.87.33.87H5v7c0 .55.45 1 1 1h3c.55 0 1-.45 1-1z" fill="currentColor"></path></svg></a></li><li class="breadcrumbs__item"><span class="breadcrumbs__link">Server API</span><meta itemprop="position" content="1"></li><li class="breadcrumbs__item"><span class="breadcrumbs__link">Operation API</span><meta itemprop="position" content="2"></li><li itemscope="" itemprop="itemListElement" itemtype="https://schema.org/ListItem" class="breadcrumbs__item breadcrumbs__item--active"><span class="breadcrumbs__link" itemprop="name">tx</span><meta itemprop="position" content="3"></li></ul></nav><div class="tocCollapsible_ETCw theme-doc-toc-mobile tocMobile_ITEo"><button type="button" class="clean-btn tocCollapsibleButton_TO0P">On this page</button></div><div class="theme-doc-markdown markdown"><h1>tx</h1><h2 class="anchor anchorWithStickyNavbar_LWe7" id="function">Function<a href="#function" class="hash-link" aria-label="Direct link to heading" title="Direct link to heading">​</a></h2><p>For all everPay transactions, everPay Tx is generated and sent to <code>tx</code> API via <code>POST</code> request, which is validated by everPay backend service.</p><p>On the user side, only the following will be generated.</p><ul><li><code>transfer</code> everPay Tx for transfer transaction</li><li><code>burn</code> everPay Tx for withdraw transaction</li></ul><h2 class="anchor anchorWithStickyNavbar_LWe7" id="parameter">Parameter<a href="#parameter" class="hash-link" aria-label="Direct link to heading" title="Direct link to heading">​</a></h2><ul><li>path <code>{{endpoint}}/tx</code></li><li>Post data <code>everpayTx</code></li></ul><p>For <code>Schema</code> generation, signatures, and transaction record acquisition, please read <a href="/en/docs/guide/dive/transaction">Guide - Dive - Transaction</a></p><h2 class="anchor anchorWithStickyNavbar_LWe7" id="example">Example<a href="#example" class="hash-link" aria-label="Direct link to heading" title="Direct link to heading">​</a></h2><div class="language-bash codeBlockContainer_Ckt0 theme-code-block" style="--prism-color:#393A34;--prism-background-color:#f6f8fa"><div class="codeBlockContent_biex"><pre tabindex="0" class="prism-code language-bash codeBlock_bY9V thin-scrollbar"><code class="codeBlockLines_e6Vv"><span class="token-line" style="color:#393A34"><span class="token function" style="color:#d73a49">curl</span><span class="token plain"> --location --request POST </span><span class="token string" style="color:#e3116c">&#x27;https://api-dev.everpay.io/tx&#x27;</span><span class="token plain"> </span><span class="token punctuation" style="color:#393A34">\</span><span class="token plain"></span><br></span><span class="token-line" style="color:#393A34"><span class="token plain">--header </span><span class="token string" style="color:#e3116c">&#x27;Content-Type: application/json&#x27;</span><span class="token plain"> </span><span class="token punctuation" style="color:#393A34">\</span><span class="token plain"></span><br></span><span class="token-line" style="color:#393A34"><span class="token plain">--data-raw </span><span class="token string" style="color:#e3116c">&#x27;{</span><br></span><span class="token-line" style="color:#393A34"><span class="token string" style="color:#e3116c">  &quot;tokenSymbol&quot;: &quot;USDT&quot;,</span><br></span><span class="token-line" style="color:#393A34"><span class="token string" style="color:#e3116c">  &quot;action&quot;: &quot;mint&quot;,</span><br></span><span class="token-line" style="color:#393A34"><span class="token string" style="color:#e3116c">  &quot;from&quot;: &quot;0xa06b79E655Db7D7C3B3E7B2ccEEb068c3259d0C9&quot;,</span><br></span><span class="token-line" style="color:#393A34"><span class="token string" style="color:#e3116c">  &quot;to&quot;: &quot;0xa06b79E655Db7D7C3B3E7B2ccEEb068c3259d0C9&quot;,</span><br></span><span class="token-line" style="color:#393A34"><span class="token string" style="color:#e3116c">  &quot;amount&quot;: &quot;1000000000&quot;,</span><br></span><span class="token-line" style="color:#393A34"><span class="token string" style="color:#e3116c">  &quot;fee&quot;: &quot;0&quot;,</span><br></span><span class="token-line" style="color:#393A34"><span class="token string" style="color:#e3116c">  &quot;feeRecipient&quot;: &quot;0xa06b79E655Db7D7C3B3E7B2ccEEb068c3259d0C9&quot;,</span><br></span><span class="token-line" style="color:#393A34"><span class="token string" style="color:#e3116c">  &quot;nonce&quot;: &quot;125&quot;,</span><br></span><span class="token-line" style="color:#393A34"><span class="token string" style="color:#e3116c">  &quot;tokenID&quot;: &quot;0xd85476c906b5301e8e9eb58d174a6f96b9dfc5ee&quot;,</span><br></span><span class="token-line" style="color:#393A34"><span class="token string" style="color:#e3116c">  &quot;chainType&quot;: &quot;ethereum&quot;,</span><br></span><span class="token-line" style="color:#393A34"><span class="token string" style="color:#e3116c">  &quot;chainID&quot;: &quot;42&quot;,</span><br></span><span class="token-line" style="color:#393A34"><span class="token string" style="color:#e3116c">  &quot;data&quot;: &quot;{\&quot;blockHash\&quot;:\&quot;0x92a3f4b955177d9e25eb68767804756710a43925726f6028ae41f8c1682e4516\&quot;,\&quot;blockNumber\&quot;:\&quot;0x172763a\&quot;,\&quot;chainId\&quot;:\&quot;0x2a\&quot;,\&quot;condition\&quot;:null,\&quot;creates\&quot;:null,\&quot;from\&quot;:\&quot;0xa06b79e655db7d7c3b3e7b2cceeb068c3259d0c9\&quot;,\&quot;gas\&quot;:\&quot;0x1319e\&quot;,\&quot;gasPrice\&quot;:\&quot;0x2d1375900\&quot;,\&quot;hash\&quot;:\&quot;0x8633e2e294dd2b0995bbd313390797be673f67196c51c0f49b8f17c0893d1c66\&quot;,\&quot;input\&quot;:\&quot;0xa9059cbb0000000000000000000000007749cc63da481aae8fe846db55b2cd216663a984000000000000000000000000000000000000000000000000000000003b9aca00\&quot;,\&quot;nonce\&quot;:\&quot;0x2ee\&quot;,\&quot;publicKey\&quot;:\&quot;0x103e40746c8cadcf3ec79cc5143e98c23bf22bf3e4abb6cd96221dfc2439494bbd2cdbb232bff9b69f931542e2ceb13253eaebe977f3613a9686a782738e6424\&quot;,\&quot;r\&quot;:\&quot;0xd959cbaffe7ab911a312fd023452a7dede9483a85ba8800961f36b040cf1f310\&quot;,\&quot;raw\&quot;:\&quot;0xf8ac8202ee8502d13759008301319e94d85476c906b5301e8e9eb58d174a6f96b9dfc5ee80b844a9059cbb0000000000000000000000007749cc63da481aae8fe846db55b2cd216663a984000000000000000000000000000000000000000000000000000000003b9aca0077a0d959cbaffe7ab911a312fd023452a7dede9483a85ba8800961f36b040cf1f310a04a15cadb83b39d565154e0bb4c149d7ff478791ea82e1a3a1a2a91a047b8c52c\&quot;,\&quot;s\&quot;:\&quot;0x4a15cadb83b39d565154e0bb4c149d7ff478791ea82e1a3a1a2a91a047b8c52c\&quot;,\&quot;standardV\&quot;:\&quot;0x0\&quot;,\&quot;to\&quot;:\&quot;0xd85476c906b5301e8e9eb58d174a6f96b9dfc5ee\&quot;,\&quot;transactionIndex\&quot;:\&quot;0x3\&quot;,\&quot;v\&quot;:\&quot;0x77\&quot;,\&quot;value\&quot;:\&quot;0x0\&quot;}&quot;,</span><br></span><span class="token-line" style="color:#393A34"><span class="token string" style="color:#e3116c">  &quot;version&quot;: &quot;v1&quot;,</span><br></span><span class="token-line" style="color:#393A34"><span class="token string" style="color:#e3116c">  &quot;sig&quot;: &quot;0x41054e11f44ddc72adf6f24efd9701ba510c7858ec8a1f0b08891e8d6f19869b552fb79134cb804d9074a3230c727c29930786435c46be21804dac0e3d871d831c&quot;</span><br></span><span class="token-line" style="color:#393A34"><span class="token string" style="color:#e3116c">}&#x27;</span><br></span></code></pre><div class="buttonGroup__atx"><button type="button" aria-label="Copy code to clipboard" title="Copy" class="clean-btn"><span class="copyButtonIcons_eSgA" aria-hidden="true"><svg class="copyButtonIcon_y97N" viewBox="0 0 24 24"><path d="M19,21H8V7H19M19,5H8A2,2 0 0,0 6,7V21A2,2 0 0,0 8,23H19A2,2 0 0,0 21,21V7A2,2 0 0,0 19,5M16,1H4A2,2 0 0,0 2,3V17H4V3H16V1Z"></path></svg><svg class="copyButtonSuccessIcon_LjdS" viewBox="0 0 24 24"><path d="M21,7L9,19L3.5,13.5L4.91,12.09L9,16.17L19.59,5.59L21,7Z"></path></svg></span></button></div></div></div><h3 class="anchor anchorWithStickyNavbar_LWe7" id="example-return">Example Return<a href="#example-return" class="hash-link" aria-label="Direct link to heading" title="Direct link to heading">​</a></h3><div class="language-json codeBlockContainer_Ckt0 theme-code-block" style="--prism-color:#393A34;--prism-background-color:#f6f8fa"><div class="codeBlockContent_biex"><pre tabindex="0" class="prism-code language-json codeBlock_bY9V thin-scrollbar"><code class="codeBlockLines_e6Vv"><span class="token-line" style="color:#393A34"><span class="token punctuation" style="color:#393A34">{</span><span class="token plain"></span><br></span><span class="token-line" style="color:#393A34"><span class="token plain">  </span><span class="token property" style="color:#36acaa">&quot;status&quot;</span><span class="token operator" style="color:#393A34">:</span><span class="token plain"> </span><span class="token string" style="color:#e3116c">&quot;ok&quot;</span><span class="token plain"></span><br></span><span class="token-line" style="color:#393A34"><span class="token plain"></span><span class="token punctuation" style="color:#393A34">}</span><br></span></code></pre><div class="buttonGroup__atx"><button type="button" aria-label="Copy code to clipboard" title="Copy" class="clean-btn"><span class="copyButtonIcons_eSgA" aria-hidden="true"><svg class="copyButtonIcon_y97N" viewBox="0 0 24 24"><path d="M19,21H8V7H19M19,5H8A2,2 0 0,0 6,7V21A2,2 0 0,0 8,23H19A2,2 0 0,0 21,21V7A2,2 0 0,0 19,5M16,1H4A2,2 0 0,0 2,3V17H4V3H16V1Z"></path></svg><svg class="copyButtonSuccessIcon_LjdS" viewBox="0 0 24 24"><path d="M21,7L9,19L3.5,13.5L4.91,12.09L9,16.17L19.59,5.59L21,7Z"></path></svg></span></button></div></div></div></div><footer class="theme-doc-footer docusaurus-mt-lg"><div class="theme-doc-footer-edit-meta-row row"><div class="col"><a href="https://github.com/everFinance/docs/edit/master/i18n/en/docusaurus-plugin-content-docs/current/sdk/server-api/operation-api/tx.md" target="_blank" rel="noreferrer noopener" class="theme-edit-this-page"><svg fill="currentColor" height="20" width="20" viewBox="0 0 40 40" class="iconEdit_Z9Sw" aria-hidden="true"><g><path d="m34.5 11.7l-3 3.1-6.3-6.3 3.1-3q0.5-0.5 1.2-0.5t1.1 0.5l3.9 3.9q0.5 0.4 0.5 1.1t-0.5 1.2z m-29.5 17.1l18.4-18.5 6.3 6.3-18.4 18.4h-6.3v-6.2z"></path></g></svg>Edit this page</a></div><div class="col lastUpdated_vwxv"></div></div></footer></article><nav class="pagination-nav docusaurus-mt-lg" aria-label="Docs pages navigation"><a class="pagination-nav__link pagination-nav__link--prev" href="/en/docs/sdk/server-api/operation-api/intro"><div class="pagination-nav__sublabel">Previous</div><div class="pagination-nav__label">Introduction</div></a><a class="pagination-nav__link pagination-nav__link--next" href="/en/docs/sdk/everpay-js/intro"><div class="pagination-nav__sublabel">Next</div><div class="pagination-nav__label">Introduction</div></a></nav></div></div><div class="col col--3"><div class="tableOfContents_bqdL thin-scrollbar theme-doc-toc-desktop"><ul class="table-of-contents table-of-contents__left-border"><li><a href="#function" class="table-of-contents__link toc-highlight">Function</a></li><li><a href="#parameter" class="table-of-contents__link toc-highlight">Parameter</a></li><li><a href="#example" class="table-of-contents__link toc-highlight">Example</a><ul><li><a href="#example-return" class="table-of-contents__link toc-highlight">Example Return</a></li></ul></li></ul></div></div></div></div></main></div></div><footer class="footer footer--dark"><div class="container container-fluid"><div class="row footer__links"><div class="col footer__col"><div class="footer__title">Docs</div><ul class="footer__items clean-list"><li class="footer__item"><a class="footer__link-item" href="/en/docs/guide/quick-start/overview">Guide</a></li><li class="footer__item"><a class="footer__link-item" href="/en/docs/sdk/intro">SDK</a></li></ul></div><div class="col footer__col"><div class="footer__title">Community</div><ul class="footer__items clean-list"><li class="footer__item"><a href="https://twitter.com/everVisionHQ" target="_blank" rel="noopener noreferrer" class="footer__link-item">Twitter<svg width="13.5" height="13.5" aria-hidden="true" viewBox="0 0 24 24" class="iconExternalLink_nPIU"><path fill="currentColor" d="M21 13v10h-21v-19h12v2h-10v15h17v-8h2zm3-12h-10.988l4.035 4-6.977 7.07 2.828 2.828 6.977-7.07 4.125 4.172v-11z"></path></svg></a></li><li class="footer__item"><a href="https://discord.gg/WM5MQZGVPF" target="_blank" rel="noopener noreferrer" class="footer__link-item">Discord<svg width="13.5" height="13.5" aria-hidden="true" viewBox="0 0 24 24" class="iconExternalLink_nPIU"><path fill="currentColor" d="M21 13v10h-21v-19h12v2h-10v15h17v-8h2zm3-12h-10.988l4.035 4-6.977 7.07 2.828 2.828 6.977-7.07 4.125 4.172v-11z"></path></svg></a></li><li class="footer__item"><a href="https://news.ever.vision" target="_blank" rel="noopener noreferrer" class="footer__link-item">Medium<svg width="13.5" height="13.5" aria-hidden="true" viewBox="0 0 24 24" class="iconExternalLink_nPIU"><path fill="currentColor" d="M21 13v10h-21v-19h12v2h-10v15h17v-8h2zm3-12h-10.988l4.035 4-6.977 7.07 2.828 2.828 6.977-7.07 4.125 4.172v-11z"></path></svg></a></li></ul></div><div class="col footer__col"><div class="footer__title">GitHub</div><ul class="footer__items clean-list"><li class="footer__item"><a href="https://github.com/everFinance/docs" target="_blank" rel="noopener noreferrer" class="footer__link-item">docs<svg width="13.5" height="13.5" aria-hidden="true" viewBox="0 0 24 24" class="iconExternalLink_nPIU"><path fill="currentColor" d="M21 13v10h-21v-19h12v2h-10v15h17v-8h2zm3-12h-10.988l4.035 4-6.977 7.07 2.828 2.828 6.977-7.07 4.125 4.172v-11z"></path></svg></a></li><li class="footer__item"><a href="https://github.com/everFinance/everpay-js" target="_blank" rel="noopener noreferrer" class="footer__link-item">everpay-js<svg width="13.5" height="13.5" aria-hidden="true" viewBox="0 0 24 24" class="iconExternalLink_nPIU"><path fill="currentColor" d="M21 13v10h-21v-19h12v2h-10v15h17v-8h2zm3-12h-10.988l4.035 4-6.977 7.07 2.828 2.828 6.977-7.07 4.125 4.172v-11z"></path></svg></a></li></ul></div></div><div class="footer__bottom text--center"><div class="footer__copyright">Copyright © 2021 everFinance, Inc. Built with Docusaurus.</div></div></div></footer></div>
<script src="/en/assets/js/runtime~main.10486843.js"></script>
<script src="/en/assets/js/main.92a9d5d0.js"></script>
</body>
</html>